0120531084587000PEN20221201001102600100017762                                                                                                           
02TANTALEAN VALVERDE THIAGO JOAQ00077952654MENSUALIDAD NOVIEMBRE   COD-0001139560000000000330000000000000330000000000000000007799402367202212010204WNET 
02BARRETO GUILLERMO TYAGO NEYMAR00063092145MENSUALIDAD NOVIEMBRE   COD-0001191740000000000165000000000000165000000000000000007799152504202211300204WNET 
02CLEMENTE FLORES MARIA VALENTIN00091237738MENSUALIDAD NOVIEMBRE   COD-0001190350000000000155000000000000155000000000000000007799157017202211300204WNET 
02SALVADOR CRUZ DAYRA CAMILA FLO00090929545MENSUALIDAD NOVIEMBRE   COD-0001143420000000000310000000000000310000000000000000000437166512202211300204WNET 
02TINOCO USUA MAURICIO MARTIN   00062672330MENSUALIDAD NOVIEMBRE   COD-0000967210000000000330000000000000330000000000000000007799185940202212010704WNET 
02HENOSTROZA VARGAS ANDRE ALEXAN00063193642MENSUALIDAD NOVIEMBRE   COD-0001164850000000000300000000000000300000000000000000007799189281202212010204WNET 
02SABINO FIGUEROA NAYSHA ARIANA 00061517261MENSUALIDAD DICIEMBRE   COD-0001052730000000000340000000000000340000000000000000007799199749202212010204WNET 
02SABINO FIGUEROA KIMY INGRID   00063193335MENSUALIDAD DICIEMBRE   COD-0001052620000000000320000000000000320000000000000000007799199837202212010204WNET 
02RURUSH ALVARADO LUCELLI CAMILA00062838058MENSUALIDAD NOVIEMBRE   COD-0001083560000000000330000000000000330000000000000000007799200524202212010204WNET 
02ESQUIVEL BEDON PEYTON ROUS    00079798398MENSUALIDAD NOVIEMBRE   COD-0001164010000000000155000000000000155000000000000000007799202568202212010204WNET 
02MOGOLLON MEJIA JESSDYLU JUSLET00081579267MENSUALIDAD NOVIEMBRE   COD-0001159710000000000165000000000000165000000000000000007799255043202212010204WNET 
02GONZALES TORRES AYRTON SAYRI  00078646933MENSUALIDAD DICIEMBRE   COD-0000989220000000000290000000000000290000000000000000000437295557202212010204WNET 
02GONZALES TORRES NICOLAS SAMIN 00061880167MENSUALIDAD DICIEMBRE   COD-0000964800000000000340000000000000340000000000000000000437296928202212010204WNET 
02CALCIN VALENZUELA VALERIA MARI00061822431MENSUALIDAD NOVIEMBRE   COD-00010429800000000003500000000000003500000000000000000008173264902022120101068P%P 
02BANEZ ESPIRITU DANIEL ALVEYRO 00061191533MENSUALIDAD SETIEMBRE   COD-00011491400000000003100000000000003100000000000000000008173379172022120101068K%M 
02TREJO MENDOZA DANIEL TAYLOR   00078439745MENSUALIDAD NOVIEMBRE   COD-00011240200000000003300000000000003300000000000000000008173604632022120101068V%V 
02CARRANZA JAIMES SHANTAL ANABEL00060411227MENSUALIDAD NOVIEMBRE   COD-00010178600000000003100000000000003100000000000000000008173691962022120101068U%Z 
02MILLA MORENO JOSIAS IGNACIO   00081552557MENSUALIDAD NOVIEMBRE   COD-0001079500000000000300000000000000300000000000000000007799399308202212010204WNET 
02MILLA MORENO JOSIAS IGNACIO   00081552557MENSUALIDAD DICIEMBRE   COD-0001079510000000000300000000000000300000000000000000007799399310202212010204WNET 
02TANTALEAN VALVERDE THIAGO JOAQ00077952654MENSUALIDAD OCTUBRE     COD-0001139550000000000330000000000000330000000000000000007799402366202212010204WNET 
02OLIVEROS RUIZ SEBASTIAN ESTEFA00061233187MENSUALIDAD OCTUBRE     COD-00011207100000000003500000000000003500000000000000000008174187722022120101068V%O 
02OLIVEROS RUIZ SEBASTIAN ESTEFA00061233187MENSUALIDAD NOVIEMBRE   COD-00011207200000000003500000000000003500000000000000000008174196352022120101069S%E 
02CORAL TOLENTINO MARIANA FERNAN00062759052MENSUALIDAD NOVIEMBRE   COD-00010733900000000001500000000000001500000000000000000008174218792022120101069S%F 
02CORAL TOLENTINO GERALDINE JIME00061191408MENSUALIDAD NOVIEMBRE   COD-00010732800000000001550000000000001550000000000000000008174234752022120101069U%B 
02VILLANUEVA DIAZ MARIAFERNANDA 00074311138MENSUALIDAD OCTUBRE     COD-0001127090000000000310000000000000310000000000000000007799460664202212010204WNET 
02VILLANUEVA SEGURA EDMUNDO THIA00073565178MENSUALIDAD OCTUBRE     COD-0001079250000000000350000000000000350000000000000000007799461564202212010204WNET 
02MEJIA CHINCHAY JHARED RICARDO 00079206537MENSUALIDAD NOVIEMBRE   COD-0001154000000000000300000000000000300000000000000000007799477168202212010204WNET 
02MOGOLLON JIRALDO MARIANA SOFIA00062043006MENSUALIDAD OCTUBRE     COD-0001075940000000000310000000000000310000000000000000007799483768202212010204WNET 
02MOGOLLON JIRALDO MARIA FERNAND00090727226MENSUALIDAD OCTUBRE     COD-0001125910000000000310000000000000310000000000000000007799485142202212010204WNET 
02FLORES FLORES ARIANA BRIGITH  00062552566MENSUALIDAD NOVIEMBRE   COD-00009971300000000003000000000000003000000000000000000008177464562022120101069E%R 
02MORENO LUJAN BRIANNA JILL BELL00077982238MENSUALIDAD OCTUBRE     COD-00010128400000000003300000000000003300000000000000000008177500372022120101069D%Q 
02MORENO LUJAN FABIANO NICOLAI  00079389202MENSUALIDAD OCTUBRE     COD-00010129500000000003300000000000003300000000000000000008177511002022120101069U%S 
02ESPEJO UBALDO LUIS JHEAN PIERS00061064006MENSUALIDAD NOVIEMBRE   COD-00011327300000000003100000000000003100000000000000000008176087652022120101068M%J 
02SORIANO LLALLIHUAMAN VANESSA R00060424988MENSUALIDAD NOVIEMBRE   COD-0000974510000000000350000000000000350000000000000000000437616787202212010204WNET 
02FLORES CORDOVA GABRIEL MAURICI00061880181MENSUALIDAD NOVIEMBRE   COD-00010061700000000003500000000000003500000000000000000008176302062022120101068J%X 
02VALVERDE CAMONES JEAN FRANKO N00061155538MENSUALIDAD OCTUBRE     COD-00011048900000000003100000000000003100000000000000000008176466272022120101068K%G 
02VALVERDE CAMONES JEAN FRANKO N00061155538MENSUALIDAD NOVIEMBRE   COD-00011049000000000003100000000000003100000000000000000008176486652022120101069P%I 
02COCHACHIN LAZARO DIANA AMELIA 00061232873MENSUALIDAD OCTUBRE     COD-00010398600000000003500000000000003500000000000000000008176548092022120101069O%D 
02COCHACHIN LAZARO ANGHELINE DE 00062287064MENSUALIDAD OCTUBRE     COD-00010397500000000003300000000000003300000000000000000008176557802022120101069I%I 
02COCHACHIN LAZARO MELANY FERNAN00090657117MENSUALIDAD OCTUBRE     COD-00010399700000000003100000000000003100000000000000000008176568372022120101069M%Y 
02SOLANO FERNANDEZ NADINNE ILLAR00062769994MENSUALIDAD NOVIEMBRE   COD-0000990990000000000330000000000000330000000000000000007799675783202212010204WNET 
02BENITES MENDOZA YANLI ANTHONY 00063193396MENSUALIDAD NOVIEMBRE   COD-00009854300000000003300000000000003300000000000000000008177390002022120101069F%B 
02BENITES MENDOZA STEPHEN CRISTO00062423611MENSUALIDAD NOVIEMBRE   COD-00009853200000000003300000000000003300000000000000000008177397372022120101069A%T 
02FLORES FLORES LUIS ALEJANDRO  00071980940MENSUALIDAD NOVIEMBRE   COD-00009972400000000003100000000000003100000000000000000008177455632022120101068X%E 
02OBREGON GONZALES LUANA STACE  00061713694MENSUALIDAD NOVIEMBRE   COD-00010859800000000003500000000000003500000000000000000008177637352022120101068S%V 
02MOLINA ALCANTARA SEBASTIAN MAT00090862759MENSUALIDAD NOVIEMBRE   COD-0001127340000000000310000000000000310000000000000000007799767132202212010204WNET 
02DE LA CRUZ MINAYA JHON MARCELO00063091798MENSUALIDAD NOVIEMBRE   COD-0001049820000000000330000000000000330000000000000000007799785994202212010204WNET 
02GONZALES MORALES MAXIMILIANO S00061409342MENSUALIDAD NOVIEMBRE   COD-0001050370000000000310000000000000310000000000000000007799818236202212010204WNET 
02GONZALES MORALES MAXIMILIANO S00061409342MENSUALIDAD DICIEMBRE   COD-0001050380000000000310000000000000310000000000000000007799818237202212010204WNET 
03000000049000000001483500000000001483500000000000000000                                                                                                
